{"abi":[{"type":"constructor","inputs":[{"name":"_question","type":"string","internalType":"string"},{"name":"_category","type":"string","internalType":"string"},{"name":"_admin","type":"address","internalType":"address"},{"name":"_collateralToken","type":"address","internalType":"address"},{"name":"_bettingDeadline","type":"uint256","internalType":"uint256"},{"name":"_resolutionDeadline","type":"uint256","internalType":"uint256"}],"stateMutability":"nonpayable"},{"type":"function","name":"CHALLENGE_WINDOW","inputs":[],"outputs":[{"name":"","type":"uint256","internalType":"uint256"}],"stateMutability":"view"},{"type":"function","name":"admin","inputs":[],"outputs":[{"name":"","type":"address","internalType":"address"}],"stateMutability":"view"},{"type":"function","name":"bet","inputs":[{"name":"isYes","type":"bool","internalType":"bool"},{"name":"amount","type":"uint256","internalType":"uint256"}],"outputs":[],"stateMutability":"nonpayable"},{"type":"function","name":"bettingDeadline","inputs":[],"outputs":[{"name":"","type":"uint256","internalType":"uint256"}],"stateMutability":"view"},{"type":"function","name":"category","inputs":[],"outputs":[{"name":"","type":"string","internalType":"string"}],"stateMutability":"view"},{"type":"function","name":"challenge","inputs":[],"outputs":[],"stateMutability":"nonpayable"},{"type":"function","name":"challenged","inputs":[],"outputs":[{"name":"","type":"bool","internalType":"bool"}],"stateMutability":"view"},{"type":"function","name":"claim","inputs":[],"outputs":[],"stateMutability":"nonpayable"},{"type":"function","name":"claimed","inputs":[{"name":"","type":"address","internalType":"address"}],"outputs":[{"name":"","type":"bool","internalType":"bool"}],"stateMutability":"view"},{"type":"function","name":"collateralToken","inputs":[],"outputs":[{"name":"","type":"address","internalType":"contract IERC20"}],"stateMutability":"view"},{"type":"function","name":"expireClaim","inputs":[],"outputs":[],"stateMutability":"nonpayable"},{"type":"function","name":"finalize","inputs":[],"outputs":[],"stateMutability":"nonpayable"},{"type":"function","name":"finalized","inputs":[],"outputs":[{"name":"","type":"bool","internalType":"bool"}],"stateMutability":"view"},{"type":"function","name":"getClaimable","inputs":[{"name":"user","type":"address","internalType":"address"}],"outputs":[{"name":"claimable","type":"uint256","internalType":"uint256"}],"stateMutability":"view"},{"type":"function","name":"getMarketInfo","inputs":[],"outputs":[{"name":"_question","type":"string","internalType":"string"},{"name":"_category","type":"string","internalType":"string"},{"name":"_bettingDeadline","type":"uint256","internalType":"uint256"},{"name":"_resolutionDeadline","type":"uint256","internalType":"uint256"},{"name":"_totalYesPool","type":"uint256","internalType":"uint256"},{"name":"_totalNoPool","type":"uint256","internalType":"uint256"},{"name":"_outcome","type":"uint8","internalType":"uint8"},{"name":"_finalized","type":"bool","internalType":"bool"}],"stateMutability":"view"},{"type":"function","name":"getOdds","inputs":[],"outputs":[{"name":"yesPct","type":"uint256","internalType":"uint256"},{"name":"noPct","type":"uint256","internalType":"uint256"}],"stateMutability":"view"},{"type":"function","name":"getStatus","inputs":[],"outputs":[{"name":"status","type":"string","internalType":"string"}],"stateMutability":"view"},{"type":"function","name":"noShares","inputs":[{"name":"","type":"address","internalType":"address"}],"outputs":[{"name":"","type":"uint256","internalType":"uint256"}],"stateMutability":"view"},{"type":"function","name":"outcome","inputs":[],"outputs":[{"name":"","type":"uint8","internalType":"enum UnicePredictionMarket.Outcome"}],"stateMutability":"view"},{"type":"function","name":"question","inputs":[],"outputs":[{"name":"","type":"string","internalType":"string"}],"stateMutability":"view"},{"type":"function","name":"resolutionDeadline","inputs":[],"outputs":[{"name":"","type":"uint256","internalType":"uint256"}],"stateMutability":"view"},{"type":"function","name":"submitResult","inputs":[{"name":"_outcome","type":"uint8","internalType":"uint8"}],"outputs":[],"stateMutability":"nonpayable"},{"type":"function","name":"submittedAt","inputs":[],"outputs":[{"name":"","type":"uint256","internalType":"uint256"}],"stateMutability":"view"},{"type":"function","name":"totalNoPool","inputs":[],"outputs":[{"name":"","type":"uint256","internalType":"uint256"}],"stateMutability":"view"},{"type":"function","name":"totalYesPool","inputs":[],"outputs":[{"name":"","type":"uint256","internalType":"uint256"}],"stateMutability":"view"},{"type":"function","name":"yesShares","inputs":[{"name":"","type":"address","internalType":"address"}],"outputs":[{"name":"","type":"uint256","internalType":"uint256"}],"stateMutability":"view"},{"type":"event","name":"BetPlaced","inputs":[{"name":"user","type":"address","indexed":true,"internalType":"address"},{"name":"isYes","type":"bool","indexed":false,"internalType":"bool"},{"name":"amount","type":"uint256","indexed":false,"internalType":"uint256"}],"anonymous":false},{"type":"event","name":"ExpireRefundClaimed","inputs":[{"name":"user","type":"address","indexed":true,"internalType":"address"},{"name":"amount","type":"uint256","indexed":false,"internalType":"uint256"}],"anonymous":false},{"type":"event","name":"MarketFinalized","inputs":[{"name":"outcome","type":"uint8","indexed":false,"internalType":"uint8"}],"anonymous":false},{"type":"event","name":"ResultChallenged","inputs":[{"name":"challenger","type":"address","indexed":true,"internalType":"address"}],"anonymous":false},{"type":"event","name":"ResultSubmitted","inputs":[{"name":"outcome","type":"uint8","indexed":false,"internalType":"uint8"},{"name":"timestamp","type":"uint256","indexed":false,"internalType":"uint256"}],"anonymous":false},{"type":"event","name":"WinningsClaimed","inputs":[{"name":"user","type":"address","indexed":true,"internalType":"address"},{"name":"amount","type":"uint256","indexed":false,"internalType":"uint256"}],"anonymous":false},{"type":"error","name":"ReentrancyGuardReentrantCall","inputs":[]},{"type":"error","name":"SafeERC20FailedOperation","inputs":[{"name":"token","type":"address","internalType":"address"}]}],"bytecode":{"object":"0x608060405234801562000010575f80fd5b5060405162001e4038038062001e408339810160408190526200003391620002fa565b60017f9b779b17422d0df92223018b32b4d1fa46e071723d6817e2486d003becc55f00556001600160a01b038416620000b35760405162461bcd60e51b815260206004820152601360248201527f556e696365504d3a207a65726f2061646d696e0000000000000000000000000060448201526064015b60405180910390fd5b6001600160a01b0383166200010b5760405162461bcd60e51b815260206004820152601360248201527f556e696365504d3a207a65726f20746f6b656e000000000000000000000000006044820152606401620000aa565b4282116200015c5760405162461bcd60e51b815260206004820152601860248201527f556e696365504d3a20646561646c696e652070617373656400000000000000006044820152606401620000aa565b818111620001b85760405162461bcd60e51b815260206004820152602260248201527f556e696365504d3a207265736f6c7574696f6e206265666f72652062657474696044820152616e6760f01b6064820152608401620000aa565b5f620001c5878262000421565b506001620001d4868262000421565b50600280546001600160a01b039586166001600160a01b031991821617909155600380549490951693169290921790925560049190915560055550506006805460ff19169055620004e9565b634e487b7160e01b5f52604160045260245ffd5b5f82601f83011262000244575f80fd5b81516001600160401b038082111562000261576200026162000220565b604051601f8301601f19908116603f011681019082821181831017156200028c576200028c62000220565b81604052838152602092508683858801011115620002a8575f80fd5b5f91505b83821015620002cb5785820183015181830184015290820190620002ac565b5f93810190920192909252949350505050565b80516001600160a01b0381168114620002f5575f80fd5b919050565b5f805f805f8060c0878903121562000310575f80fd5b86516001600160401b038082111562000327575f80fd5b620003358a838b0162000234565b975060208901519150808211156200034b575f80fd5b506200035a89828a0162000234565b9550506200036b60408801620002de565b93506200037b60608801620002de565b92506080870151915060a087015190509295509295509295565b600181811c90821680620003aa57607f821691505b602082108103620003c957634e487b7160e01b5f52602260045260245ffd5b50919050565b601f8211156200041c575f81815260208120601f850160051c81016020861015620003f75750805b601f850160051c820191505b81811015620004185782815560010162000403565b5050505b505050565b81516001600160401b038111156200043d576200043d62000220565b62000455816200044e845462000395565b84620003cf565b602080601f8311600181146200048b575f8415620004735750858301515b5f19600386901b1c1916600185901b17855562000418565b5f85815260208120601f198616915b82811015620004bb578886015182559484019460019091019084016200049a565b5085821015620004d957878501515f19600388901b60f8161c191681555b5050505050600190811b01905550565b61194980620004f75f395ff3fe608060405234801561000f575f80fd5b5060043610610187575f3560e01c8063528f734f116100d9578063b2016bd411610093578063d2ef73981161006e578063d2ef739814610348578063d62aad2914610350578063ef430aa614610359578063f851a44014610361575f80fd5b8063b2016bd4146102e9578063b3f05b9714610314578063c884ef8314610326575f80fd5b8063528f734f1461026957806356bc793e14610272578063689006a5146102915780636c8d6e5a146102ae578063818fa941146102b7578063a583024b146102d6575f80fd5b80633fad9ae0116101445780634c5be5741161011f5780634c5be574146102295780634e69d560146102465780634e71d92d1461024e5780635229a6fd14610256575f80fd5b80633fad9ae0146101f9578063448807fe1461020e5780634bb278f314610221575f80fd5b80631257d2c81461018b5780631ca107991461019557806323341a05146101b15780632468698d146101cd57806327793f87146101d657806335b185b2146101f0575b5f80fd5b610193610374565b005b61019e60075481565b6040519081526020015b60405180910390f35b6101b961058e565b6040516101a898979695949392919061174c565b61019e60045481565b6006546101e39060ff1681565b6040516101a891906117bf565b61019e60095481565b610201610704565b6040516101a891906117e5565b61019361021c3660046117f7565b61078f565b6101936109ca565b610231610b90565b604080519283526020830191909152016101a8565b610201610be8565b610193610cf5565b610193610264366004611817565b611042565b61019e60055481565b61019e610280366004611845565b600c6020525f908152604090205481565b60085461029e9060ff1681565b60405190151581526020016101a8565b61019e600a5481565b61019e6102c5366004611845565b600b6020525f908152604090205481565b61019e6102e4366004611845565b61121a565b6003546102fc906001600160a01b031681565b6040516001600160a01b0390911681526020016101a8565b60085461029e90610100900460ff1681565b61029e610334366004611845565b600d6020525f908152604090205460ff1681565b610193611394565b61019e61070881565b610201611547565b6002546102fc906001600160a01b031681565b61037c611554565b60055442116103c95760405162461bcd60e51b8152602060048201526014602482015273155b9a58d954134e881b9bdd08195e1c1a5c995960621b60448201526064015b60405180910390fd5b5f60065460ff1660038111156103e1576103e16117ab565b1461042a5760405162461bcd60e51b8152602060048201526019602482015278155b9a58d954134e88185b1c9958591e481c995cdbdb1d9959603a1b60448201526064016103c0565b335f908152600d602052604090205460ff16156104845760405162461bcd60e51b8152602060048201526018602482015277155b9a58d954134e88185b1c9958591e4818db185a5b595960421b60448201526064016103c0565b335f908152600c6020908152604080832054600b9092528220546104a8919061187f565b90505f81116104f95760405162461bcd60e51b815260206004820152601a60248201527f556e696365504d3a206e6f7468696e6720746f20726566756e6400000000000060448201526064016103c0565b335f818152600d60205260409020805460ff1916600117905560035461052c916001600160a01b03919091169083611582565b60405181815233907fc5a2a463ffe81791cb601ca8a98e672d33989bf796a198f90da1b0be9e647e0e906020015b60405180910390a25061058c60017f9b779b17422d0df92223018b32b4d1fa46e071723d6817e2486d003becc55f0055565b565b6060805f805f805f805f6001600454600554600954600a5460065f9054906101000a900460ff1660038111156105c6576105c66117ab565b600860019054906101000a900460ff168780546105e290611892565b80601f016020809104026020016040519081016040528092919081815260200182805461060e90611892565b80156106595780601f1061063057610100808354040283529160200191610659565b820191905f5260205f20905b81548152906001019060200180831161063c57829003601f168201915b5050505050975086805461066c90611892565b80601f016020809104026020016040519081016040528092919081815260200182805461069890611892565b80156106e35780601f106106ba576101008083540402835291602001916106e3565b820191905f5260205f20905b8154815290600101906020018083116106c657829003601f168201915b50505050509650975097509750975097509750975097509091929394959697565b5f805461071090611892565b80601f016020809104026020016040519081016040528092919081815260200182805461073c90611892565b80156107875780601f1061075e57610100808354040283529160200191610787565b820191905f5260205f20905b81548152906001019060200180831161076a57829003601f168201915b505050505081565b6002546001600160a01b031633146107de5760405162461bcd60e51b81526020600482015260126024820152712ab734b1b2a8269d103737ba1030b236b4b760711b60448201526064016103c0565b6004544210156108305760405162461bcd60e51b815260206004820152601b60248201527f556e696365504d3a2062657474696e67207374696c6c206f70656e000000000060448201526064016103c0565b6005544211156108825760405162461bcd60e51b815260206004820152601b60248201527f556e696365504d3a207265736f6c7574696f6e2065787069726564000000000060448201526064016103c0565b5f60065460ff16600381111561089a5761089a6117ab565b146108e35760405162461bcd60e51b8152602060048201526019602482015278155b9a58d954134e88185b1c9958591e481c995cdbdb1d9959603a1b60448201526064016103c0565b8060ff16600114806108f857508060ff166002145b6109445760405162461bcd60e51b815260206004820152601860248201527f556e696365504d3a20696e76616c6964206f7574636f6d65000000000000000060448201526064016103c0565b8060ff166003811115610959576109596117ab565b6006805460ff19166001836003811115610975576109756117ab565b02179055504260078190556008805460ff191690556040805160ff8416815260208101929092527f059c8c9182ed93df36fc771341d64e3bd86b469eb45a1f5d52d38fe6ecdff6f2910160405180910390a150565b5f60065460ff1660038111156109e2576109e26117ab565b03610a275760405162461bcd60e51b8152602060048201526015602482015274155b9a58d954134e881b9bdd081c995cdbdb1d9959605a1b60448201526064016103c0565b60085460ff1615610a7a5760405162461bcd60e51b815260206004820152601e60248201527f556e696365504d3a20726573756c7420776173206368616c6c656e676564000060448201526064016103c0565b600854610100900460ff1615610ad25760405162461bcd60e51b815260206004820152601a60248201527f556e696365504d3a20616c72656164792066696e616c697a656400000000000060448201526064016103c0565b610708600754610ae2919061187f565b421015610b315760405162461bcd60e51b815260206004820181905260248201527f556e696365504d3a206368616c6c656e67652077696e646f772061637469766560448201526064016103c0565b6008805461ff0019166101001790556006547fe22647b990bb2c9f1fab2207a70363abb43ac42adeeaa3ec22f78ad1edf183a59060ff166003811115610b7957610b796117ab565b60405160ff909116815260200160405180910390a1565b5f805f600a54600954610ba3919061187f565b9050805f03610bb85750611388928392509050565b80600954612710610bc991906118ca565b610bd391906118e1565b9250610be183612710611900565b9150509091565b600854606090610100900460ff1615610c1f575060408051808201909152600981526811925390531256915160ba1b602082015290565b60055442118015610c4557505f60065460ff166003811115610c4357610c436117ab565b145b15610c6c57506040805180820190915260078152661156141254915160ca1b602082015290565b5f60065460ff166003811115610c8457610c846117ab565b14610cab575060408051808201909152600781526650454e44494e4760c81b602082015290565b600454421015610cd4575060408051808201909152600481526327a822a760e11b602082015290565b5060408051808201909152600681526510d313d4d15160d21b602082015290565b610cfd611554565b600854610100900460ff16610d4d5760405162461bcd60e51b8152602060048201526016602482015275155b9a58d954134e881b9bdd08199a5b985b1a5e995960521b60448201526064016103c0565b335f908152600d602052604090205460ff1615610da75760405162461bcd60e51b8152602060048201526018602482015277155b9a58d954134e88185b1c9958591e4818db185a5b595960421b60448201526064016103c0565b5f600160065460ff166003811115610dc157610dc16117ab565b03610e6557335f908152600b602052604090205480610e225760405162461bcd60e51b815260206004820152601a60248201527f556e696365504d3a206e6f2077696e6e696e672073686172657300000000000060448201526064016103c0565b600a545f03610e3357809150610e5f565b5f600954600a5483610e4591906118ca565b610e4f91906118e1565b9050610e5b818361187f565b9250505b50610fdd565b600260065460ff166003811115610e7e57610e7e6117ab565b03610f0257335f908152600c602052604090205480610edf5760405162461bcd60e51b815260206004820152601a60248201527f556e696365504d3a206e6f2077696e6e696e672073686172657300000000000060448201526064016103c0565b6009545f03610ef057809150610e5f565b5f600a5460095483610e4591906118ca565b600360065460ff166003811115610f1b57610f1b6117ab565b03610f9c57335f908152600c6020908152604080832054600b909252822054610f44919061187f565b90505f8111610f955760405162461bcd60e51b815260206004820152601a60248201527f556e696365504d3a206e6f7468696e6720746f20726566756e6400000000000060448201526064016103c0565b9050610fdd565b60405162461bcd60e51b8152602060048201526016602482015275556e696365504d3a20696e76616c696420737461746560501b60448201526064016103c0565b335f818152600d60205260409020805460ff19166001179055600354611010916001600160a01b03919091169083611582565b60405181815233907f1a31e733a172afcf46074b3106c17f0c298e226442682a03c1e99ce256139ec29060200161055a565b60045442106110935760405162461bcd60e51b815260206004820152601760248201527f556e696365504d3a2062657474696e6720636c6f73656400000000000000000060448201526064016103c0565b5f60065460ff1660038111156110ab576110ab6117ab565b146110f85760405162461bcd60e51b815260206004820152601860248201527f556e696365504d3a206d61726b6574207265736f6c766564000000000000000060448201526064016103c0565b5f811161113e5760405162461bcd60e51b8152602060048201526014602482015273155b9a58d954134e881e995c9bc8185b5bdd5b9d60621b60448201526064016103c0565b600354611156906001600160a01b03163330846115bc565b811561119d57335f908152600b60205260408120805483929061117a90849061187f565b925050819055508060095f828254611192919061187f565b909155506111d99050565b335f908152600c6020526040812080548392906111bb90849061187f565b9250508190555080600a5f8282546111d3919061187f565b90915550505b6040805183151581526020810183905233917fe57fa5a543ebcdebf2a7d7102ac913e14454cec006468e43a6916e95bdfcea9e910160405180910390a25050565b6008545f90610100900460ff16158061124a57506001600160a01b0382165f908152600d602052604090205460ff165b1561125657505f919050565b600160065460ff16600381111561126f5761126f6117ab565b036112d6576001600160a01b0382165f908152600b60205260408120549081900361129c57505f92915050565b600a545f036112ab5792915050565b600954600a546112bb90836118ca565b6112c591906118e1565b6112cf908261187f565b9392505050565b600260065460ff1660038111156112ef576112ef6117ab565b0361133b576001600160a01b0382165f908152600c60205260408120549081900361131c57505f92915050565b6009545f0361132b5792915050565b600a546009546112bb90836118ca565b600360065460ff166003811115611354576113546117ab565b0361138d576001600160a01b0382165f908152600c6020908152604080832054600b90925290912054611387919061187f565b92915050565b505f919050565b5f60065460ff1660038111156113ac576113ac6117ab565b036113f95760405162461bcd60e51b815260206004820152601d60248201527f556e696365504d3a206e6f7468696e6720746f206368616c6c656e676500000060448201526064016103c0565b600854610100900460ff16156114515760405162461bcd60e51b815260206004820152601a60248201527f556e696365504d3a20616c72656164792066696e616c697a656400000000000060448201526064016103c0565b60085460ff16156114a45760405162461bcd60e51b815260206004820152601b60248201527f556e696365504d3a20616c7265616479206368616c6c656e676564000000000060448201526064016103c0565b6107086007546114b4919061187f565b42106115025760405162461bcd60e51b815260206004820181905260248201527f556e696365504d3a206368616c6c656e67652077696e646f7720636c6f73656460448201526064016103c0565b6008805460ff1990811660011790915560068054909116905560405133907f9b9e39a8a790f8ce157ab4671a2c9557b9a3f395e93bc8fe89f89009034f00b3905f90a2565b6001805461071090611892565b61155c6115f8565b60027f9b779b17422d0df92223018b32b4d1fa46e071723d6817e2486d003becc55f0055565b61158f838383600161163a565b6115b757604051635274afe760e01b81526001600160a01b03841660048201526024016103c0565b505050565b6115ca84848484600161169c565b6115f257604051635274afe760e01b81526001600160a01b03851660048201526024016103c0565b50505050565b7f9b779b17422d0df92223018b32b4d1fa46e071723d6817e2486d003becc55f005460020361058c57604051633ee5aeb560e01b815260040160405180910390fd5b60405163a9059cbb60e01b5f8181526001600160a01b038616600452602485905291602083604481808b5af1925060015f51148316611690578383151615611684573d5f823e3d81fd5b5f873b113d1516831692505b60405250949350505050565b6040516323b872dd60e01b5f8181526001600160a01b038781166004528616602452604485905291602083606481808c5af1925060015f511483166116f85783831516156116ec573d5f823e3d81fd5b5f883b113d1516831692505b604052505f60605295945050505050565b5f81518084525f5b8181101561172d57602081850181015186830182015201611711565b505f602082860101526020601f19601f83011685010191505092915050565b5f61010080835261175f8184018c611709565b90508281036020840152611773818b611709565b604084019990995250506060810195909552608085019390935260a084019190915260ff1660c0830152151560e09091015292915050565b634e487b7160e01b5f52602160045260245ffd5b60208101600483106117df57634e487b7160e01b5f52602160045260245ffd5b91905290565b602081525f6112cf6020830184611709565b5f60208284031215611807575f80fd5b813560ff811681146112cf575f80fd5b5f8060408385031215611828575f80fd5b82358015158114611837575f80fd5b946020939093013593505050565b5f60208284031215611855575f80fd5b81356001600160a01b03811681146112cf575f80fd5b634e487b7160e01b5f52601160045260245ffd5b808201808211156113875761138761186b565b600181811c908216806118a657607f821691505b6020821081036118c457634e487b7160e01b5f52602260045260245ffd5b50919050565b80820281158282048414176113875761138761186b565b5f826118fb57634e487b7160e01b5f52601260045260245ffd5b500490565b818103818111156113875761138761186b56fea2646970667358221220f6dd8bf3d0ca98a214f6b7a94cd070b5b88d45e97b756389b118d8cefaef6aaa64736f6c63430008140033","linkReferences":{}},"methodIdentifiers":{"CHALLENGE_WINDOW()":"d62aad29","admin()":"f851a440","bet(bool,uint256)":"5229a6fd","bettingDeadline()":"2468698d","category()":"ef430aa6","challenge()":"d2ef7398","challenged()":"689006a5","claim()":"4e71d92d","claimed(address)":"c884ef83","collateralToken()":"b2016bd4","expireClaim()":"1257d2c8","finalize()":"4bb278f3","finalized()":"b3f05b97","getClaimable(address)":"a583024b","getMarketInfo()":"23341a05","getOdds()":"4c5be574","getStatus()":"4e69d560","noShares(address)":"56bc793e","outcome()":"27793f87","question()":"3fad9ae0","resolutionDeadline()":"528f734f","submitResult(uint8)":"448807fe","submittedAt()":"1ca10799","totalNoPool()":"6c8d6e5a","totalYesPool()":"35b185b2","yesShares(address)":"818fa941"},"id":32}