{"abi":[{"type":"constructor","inputs":[{"name":"_question","type":"string","internalType":"string"},{"name":"_category","type":"string","internalType":"string"},{"name":"_admin","type":"address","internalType":"address"},{"name":"_collateralToken","type":"address","internalType":"address"},{"name":"_bettingDeadline","type":"uint256","internalType":"uint256"},{"name":"_resolutionDeadline","type":"uint256","internalType":"uint256"}],"stateMutability":"nonpayable"},{"type":"function","name":"CHALLENGE_WINDOW","inputs":[],"outputs":[{"name":"","type":"uint256","internalType":"uint256"}],"stateMutability":"view"},{"type":"function","name":"MOCK_APY_BPS","inputs":[],"outputs":[{"name":"","type":"uint256","internalType":"uint256"}],"stateMutability":"view"},{"type":"function","name":"PROTOCOL_FEE_BPS","inputs":[],"outputs":[{"name":"","type":"uint256","internalType":"uint256"}],"stateMutability":"view"},{"type":"function","name":"admin","inputs":[],"outputs":[{"name":"","type":"address","internalType":"address"}],"stateMutability":"view"},{"type":"function","name":"bet","inputs":[{"name":"isYes","type":"bool","internalType":"bool"},{"name":"amount","type":"uint256","internalType":"uint256"}],"outputs":[],"stateMutability":"nonpayable"},{"type":"function","name":"bettingDeadline","inputs":[],"outputs":[{"name":"","type":"uint256","internalType":"uint256"}],"stateMutability":"view"},{"type":"function","name":"category","inputs":[],"outputs":[{"name":"","type":"string","internalType":"string"}],"stateMutability":"view"},{"type":"function","name":"challenge","inputs":[],"outputs":[],"stateMutability":"nonpayable"},{"type":"function","name":"challenged","inputs":[],"outputs":[{"name":"","type":"bool","internalType":"bool"}],"stateMutability":"view"},{"type":"function","name":"claim","inputs":[],"outputs":[],"stateMutability":"nonpayable"},{"type":"function","name":"claimed","inputs":[{"name":"","type":"address","internalType":"address"}],"outputs":[{"name":"","type":"bool","internalType":"bool"}],"stateMutability":"view"},{"type":"function","name":"collateralToken","inputs":[],"outputs":[{"name":"","type":"address","internalType":"contract IERC20"}],"stateMutability":"view"},{"type":"function","name":"createdAt","inputs":[],"outputs":[{"name":"","type":"uint256","internalType":"uint256"}],"stateMutability":"view"},{"type":"function","name":"expireClaim","inputs":[],"outputs":[],"stateMutability":"nonpayable"},{"type":"function","name":"finalize","inputs":[],"outputs":[],"stateMutability":"nonpayable"},{"type":"function","name":"finalized","inputs":[],"outputs":[{"name":"","type":"bool","internalType":"bool"}],"stateMutability":"view"},{"type":"function","name":"getClaimable","inputs":[{"name":"user","type":"address","internalType":"address"}],"outputs":[{"name":"principal","type":"uint256","internalType":"uint256"},{"name":"yieldEarned","type":"uint256","internalType":"uint256"},{"name":"total","type":"uint256","internalType":"uint256"}],"stateMutability":"view"},{"type":"function","name":"getEstimatedYield","inputs":[],"outputs":[{"name":"estimated","type":"uint256","internalType":"uint256"}],"stateMutability":"view"},{"type":"function","name":"getMarketInfo","inputs":[],"outputs":[{"name":"_question","type":"string","internalType":"string"},{"name":"_category","type":"string","internalType":"string"},{"name":"_bettingDeadline","type":"uint256","internalType":"uint256"},{"name":"_resolutionDeadline","type":"uint256","internalType":"uint256"},{"name":"_totalYesPool","type":"uint256","internalType":"uint256"},{"name":"_totalNoPool","type":"uint256","internalType":"uint256"},{"name":"_totalPool","type":"uint256","internalType":"uint256"},{"name":"_yieldGenerated","type":"uint256","internalType":"uint256"},{"name":"_outcome","type":"uint8","internalType":"uint8"},{"name":"_finalized","type":"bool","internalType":"bool"}],"stateMutability":"view"},{"type":"function","name":"getOdds","inputs":[],"outputs":[{"name":"yesPct","type":"uint256","internalType":"uint256"},{"name":"noPct","type":"uint256","internalType":"uint256"}],"stateMutability":"view"},{"type":"function","name":"getStatus","inputs":[],"outputs":[{"name":"status","type":"string","internalType":"string"}],"stateMutability":"view"},{"type":"function","name":"noShares","inputs":[{"name":"","type":"address","internalType":"address"}],"outputs":[{"name":"","type":"uint256","internalType":"uint256"}],"stateMutability":"view"},{"type":"function","name":"outcome","inputs":[],"outputs":[{"name":"","type":"uint8","internalType":"enum UnicePredictionMarket.Outcome"}],"stateMutability":"view"},{"type":"function","name":"protocolFeeAccrued","inputs":[],"outputs":[{"name":"","type":"uint256","internalType":"uint256"}],"stateMutability":"view"},{"type":"function","name":"question","inputs":[],"outputs":[{"name":"","type":"string","internalType":"string"}],"stateMutability":"view"},{"type":"function","name":"resolutionDeadline","inputs":[],"outputs":[{"name":"","type":"uint256","internalType":"uint256"}],"stateMutability":"view"},{"type":"function","name":"submitResult","inputs":[{"name":"_outcome","type":"uint8","internalType":"uint8"}],"outputs":[],"stateMutability":"nonpayable"},{"type":"function","name":"submittedAt","inputs":[],"outputs":[{"name":"","type":"uint256","internalType":"uint256"}],"stateMutability":"view"},{"type":"function","name":"totalNoPool","inputs":[],"outputs":[{"name":"","type":"uint256","internalType":"uint256"}],"stateMutability":"view"},{"type":"function","name":"totalPool","inputs":[],"outputs":[{"name":"","type":"uint256","internalType":"uint256"}],"stateMutability":"view"},{"type":"function","name":"totalYesPool","inputs":[],"outputs":[{"name":"","type":"uint256","internalType":"uint256"}],"stateMutability":"view"},{"type":"function","name":"withdrawProtocolFee","inputs":[],"outputs":[],"stateMutability":"nonpayable"},{"type":"function","name":"yesShares","inputs":[{"name":"","type":"address","internalType":"address"}],"outputs":[{"name":"","type":"uint256","internalType":"uint256"}],"stateMutability":"view"},{"type":"function","name":"yieldGenerated","inputs":[],"outputs":[{"name":"","type":"uint256","internalType":"uint256"}],"stateMutability":"view"},{"type":"event","name":"BetPlaced","inputs":[{"name":"user","type":"address","indexed":true,"internalType":"address"},{"name":"isYes","type":"bool","indexed":false,"internalType":"bool"},{"name":"amount","type":"uint256","indexed":false,"internalType":"uint256"}],"anonymous":false},{"type":"event","name":"MarketFinalized","inputs":[{"name":"outcome","type":"uint8","indexed":false,"internalType":"uint8"},{"name":"yieldGenerated","type":"uint256","indexed":false,"internalType":"uint256"}],"anonymous":false},{"type":"event","name":"PrincipalRefunded","inputs":[{"name":"user","type":"address","indexed":true,"internalType":"address"},{"name":"amount","type":"uint256","indexed":false,"internalType":"uint256"}],"anonymous":false},{"type":"event","name":"ResultChallenged","inputs":[{"name":"challenger","type":"address","indexed":true,"internalType":"address"}],"anonymous":false},{"type":"event","name":"ResultSubmitted","inputs":[{"name":"outcome","type":"uint8","indexed":false,"internalType":"uint8"},{"name":"timestamp","type":"uint256","indexed":false,"internalType":"uint256"}],"anonymous":false},{"type":"event","name":"WinningsClaimed","inputs":[{"name":"user","type":"address","indexed":true,"internalType":"address"},{"name":"principal","type":"uint256","indexed":false,"internalType":"uint256"},{"name":"yield","type":"uint256","indexed":false,"internalType":"uint256"}],"anonymous":false},{"type":"error","name":"ReentrancyGuardReentrantCall","inputs":[]},{"type":"error","name":"SafeERC20FailedOperation","inputs":[{"name":"token","type":"address","internalType":"address"}]}],"bytecode":{"object":"0x608060405234801562000010575f80fd5b50604051620020b7380380620020b78339810160408190526200003391620002fe565b60017f9b779b17422d0df92223018b32b4d1fa46e071723d6817e2486d003becc55f00556001600160a01b038416620000b35760405162461bcd60e51b815260206004820152601360248201527f556e696365504d3a207a65726f2061646d696e0000000000000000000000000060448201526064015b60405180910390fd5b6001600160a01b0383166200010b5760405162461bcd60e51b815260206004820152601360248201527f556e696365504d3a207a65726f20746f6b656e000000000000000000000000006044820152606401620000aa565b4282116200015c5760405162461bcd60e51b815260206004820152601860248201527f556e696365504d3a20646561646c696e652070617373656400000000000000006044820152606401620000aa565b818111620001b85760405162461bcd60e51b815260206004820152602260248201527f556e696365504d3a207265736f6c7574696f6e206265666f72652062657474696044820152616e6760f01b6064820152608401620000aa565b5f620001c5878262000425565b506001620001d4868262000425565b50600280546001600160a01b039586166001600160a01b03199182161790915560038054949095169316929092179092556005919091556006555050426004556007805460ff19169055620004ed565b634e487b7160e01b5f52604160045260245ffd5b5f82601f83011262000248575f80fd5b81516001600160401b038082111562000265576200026562000224565b604051601f8301601f19908116603f0116810190828211818310171562000290576200029062000224565b81604052838152602092508683858801011115620002ac575f80fd5b5f91505b83821015620002cf5785820183015181830184015290820190620002b0565b5f93810190920192909252949350505050565b80516001600160a01b0381168114620002f9575f80fd5b919050565b5f805f805f8060c0878903121562000314575f80fd5b86516001600160401b03808211156200032b575f80fd5b620003398a838b0162000238565b975060208901519150808211156200034f575f80fd5b506200035e89828a0162000238565b9550506200036f60408801620002e2565b93506200037f60608801620002e2565b92506080870151915060a087015190509295509295509295565b600181811c90821680620003ae57607f821691505b602082108103620003cd57634e487b7160e01b5f52602260045260245ffd5b50919050565b601f82111562000420575f81815260208120601f850160051c81016020861015620003fb5750805b601f850160051c820191505b818110156200041c5782815560010162000407565b5050505b505050565b81516001600160401b0381111562000441576200044162000224565b620004598162000452845462000399565b84620003d3565b602080601f8311600181146200048f575f8415620004775750858301515b5f19600386901b1c1916600185901b1785556200041c565b5f85815260208120601f198616915b82811015620004bf578886015182559484019460019091019084016200049e565b5085821015620004dd57878501515f19600388901b60f8161c191681555b5050505050600190811b01905550565b611bbc80620004fb5f395ff3fe608060405234801561000f575f80fd5b50600436106101fd575f3560e01c80636c8d6e5a11610114578063c58a26bd116100a9578063d62aad2911610079578063d62aad2914610416578063ddd95e641461041f578063ecfb49a314610428578063ef430aa614610431578063f851a44014610439575f80fd5b8063c58a26bd146103da578063c884ef83146103e3578063cf09e0d014610405578063d2ef73981461040e575f80fd5b8063a583024b116100e4578063a583024b14610367578063b2016bd414610395578063b3f05b97146103c0578063be378228146103d2575f80fd5b80636c8d6e5a1461032e5780637a05b4e714610337578063818fa941146103405780638511fc931461035f575f80fd5b80634bb278f3116101955780635229a6fd116101655780635229a6fd146102ce578063528f734f146102e157806356bc793e146102ea57806359d8da9214610309578063689006a514610311575f80fd5b80634bb278f3146102995780634c5be574146102a15780634e69d560146102be5780634e71d92d146102c6575f80fd5b806327793f87116101d057806327793f871461024e57806335b185b2146102685780633fad9ae014610271578063448807fe14610286575f80fd5b80631257d2c8146102015780631ca107991461020b57806323341a05146102275780632468698d14610245575b5f80fd5b61020961044c565b005b61021460085481565b6040519081526020015b60405180910390f35b61022f610542565b60405161021e9a9998979695949392919061196c565b61021460055481565b60075461025b9060ff1681565b60405161021e91906119ee565b610214600a5481565b6102796106c6565b60405161021e9190611a14565b610209610294366004611a2d565b610751565b61020961098c565b6102a9610b97565b6040805192835260208301919091520161021e565b610279610bef565b610209610cfc565b6102096102dc366004611a4d565b6110cf565b61021460065481565b6102146102f8366004611a7b565b600e6020525f908152604090205481565b6102096112bd565b60095461031e9060ff1681565b604051901515815260200161021e565b610214600b5481565b6102146101f481565b61021461034e366004611a7b565b600d6020525f908152604090205481565b6102146113c2565b61037a610375366004611a7b565b61143d565b6040805193845260208401929092529082015260600161021e565b6003546103a8906001600160a01b031681565b6040516001600160a01b03909116815260200161021e565b60095461031e90610100900460ff1681565b610214606481565b61021460115481565b61031e6103f1366004611a7b565b600f6020525f908152604090205460ff1681565b61021460045481565b6102096115e4565b61021461070881565b61021460105481565b610214600c5481565b610279611767565b6002546103a8906001600160a01b031681565b60065442116104995760405162461bcd60e51b8152602060048201526014602482015273155b9a58d954134e881b9bdd08195e1c1a5c995960621b60448201526064015b60405180910390fd5b5f60075460ff1660038111156104b1576104b16119da565b146104fa5760405162461bcd60e51b8152602060048201526019602482015278155b9a58d954134e88185b1c9958591e481c995cdbdb1d9959603a1b6044820152606401610490565b600954610100900460ff16156105225760405162461bcd60e51b815260040161049090611aa1565b6007805460ff191660031790556009805461010061ff0019909116179055565b6060805f805f805f805f805f6001600554600654600a54600b54600c5460105460075f9054906101000a900460ff166003811115610582576105826119da565b600960019054906101000a900460ff1689805461059e90611ad8565b80601f01602080910402602001604051908101604052809291908181526020018280546105ca90611ad8565b80156106155780601f106105ec57610100808354040283529160200191610615565b820191905f5260205f20905b8154815290600101906020018083116105f857829003601f168201915b5050505050995088805461062890611ad8565b80601f016020809104026020016040519081016040528092919081815260200182805461065490611ad8565b801561069f5780601f106106765761010080835404028352916020019161069f565b820191905f5260205f20905b81548152906001019060200180831161068257829003601f168201915b50505050509850995099509950995099509950995099509950995090919293949596979899565b5f80546106d290611ad8565b80601f01602080910402602001604051908101604052809291908181526020018280546106fe90611ad8565b80156107495780601f1061072057610100808354040283529160200191610749565b820191905f5260205f20905b81548152906001019060200180831161072c57829003601f168201915b505050505081565b6002546001600160a01b031633146107a05760405162461bcd60e51b81526020600482015260126024820152712ab734b1b2a8269d103737ba1030b236b4b760711b6044820152606401610490565b6005544210156107f25760405162461bcd60e51b815260206004820152601b60248201527f556e696365504d3a2062657474696e67207374696c6c206f70656e00000000006044820152606401610490565b6006544211156108445760405162461bcd60e51b815260206004820152601b60248201527f556e696365504d3a207265736f6c7574696f6e206578706972656400000000006044820152606401610490565b5f60075460ff16600381111561085c5761085c6119da565b146108a55760405162461bcd60e51b8152602060048201526019602482015278155b9a58d954134e88185b1c9958591e481c995cdbdb1d9959603a1b6044820152606401610490565b8060ff16600114806108ba57508060ff166002145b6109065760405162461bcd60e51b815260206004820152601860248201527f556e696365504d3a20696e76616c6964206f7574636f6d6500000000000000006044820152606401610490565b8060ff16600381111561091b5761091b6119da565b6007805460ff19166001836003811115610937576109376119da565b02179055504260088190556009805460ff191690556040805160ff8416815260208101929092527f059c8c9182ed93df36fc771341d64e3bd86b469eb45a1f5d52d38fe6ecdff6f2910160405180910390a150565b5f60075460ff1660038111156109a4576109a46119da565b036109e95760405162461bcd60e51b8152602060048201526015602482015274155b9a58d954134e881b9bdd081c995cdbdb1d9959605a1b6044820152606401610490565b60095460ff1615610a3c5760405162461bcd60e51b815260206004820152601e60248201527f556e696365504d3a20726573756c7420776173206368616c6c656e67656400006044820152606401610490565b600954610100900460ff1615610a645760405162461bcd60e51b815260040161049090611aa1565b610708600854610a749190611b24565b421015610ac35760405162461bcd60e51b815260206004820181905260248201527f556e696365504d3a206368616c6c656e67652077696e646f77206163746976656044820152606401610490565b5f60045442610ad29190611b3d565b90505f64496cebb800826101f4600c54610aec9190611b50565b610af69190611b50565b610b009190611b67565b9050612710610b10606483611b50565b610b1a9190611b67565b6011819055610b299082611b3d565b6010556009805461ff0019166101001790556007547f3a857c7f5c32fc8fdc141370d2de1e7a786eb19133eb6c59feb1c8fad14a46c89060ff166003811115610b7457610b746119da565b6010546040805160ff909316835260208301919091520160405180910390a15050565b5f805f600b54600a54610baa9190611b24565b9050805f03610bbf5750611388928392509050565b80600a54612710610bd09190611b50565b610bda9190611b67565b9250610be883612710611b3d565b9150509091565b600954606090610100900460ff1615610c26575060408051808201909152600981526811925390531256915160ba1b602082015290565b60065442118015610c4c57505f60075460ff166003811115610c4a57610c4a6119da565b145b15610c7357506040805180820190915260078152661156141254915160ca1b602082015290565b5f60075460ff166003811115610c8b57610c8b6119da565b14610cb2575060408051808201909152600781526650454e44494e4760c81b602082015290565b600554421015610cdb575060408051808201909152600481526327a822a760e11b602082015290565b5060408051808201909152600681526510d313d4d15160d21b602082015290565b610d04611774565b600954610100900460ff16610d545760405162461bcd60e51b8152602060048201526016602482015275155b9a58d954134e881b9bdd08199a5b985b1a5e995960521b6044820152606401610490565b335f908152600f602052604090205460ff1615610db35760405162461bcd60e51b815260206004820152601860248201527f556e696365504d3a20616c726561647920636c61696d656400000000000000006044820152606401610490565b5f8080600160075460ff166003811115610dcf57610dcf6119da565b03610e9857335f908152600d6020908152604080832054600e909252909120548115610e2757610dff8285611b24565b600a5490945015610e2757600a54601054610e1a9084611b50565b610e249190611b67565b92505b8015610e3a57610e378185611b24565b93505b610e448385611b24565b94505f8511610e915760405162461bcd60e51b8152602060048201526019602482015278556e696365504d3a206e6f7468696e6720746f20636c61696d60381b6044820152606401610490565b5050610ff2565b600260075460ff166003811115610eb157610eb16119da565b03610f1957335f908152600d6020908152604080832054600e909252909120548015610f0957610ee18185611b24565b600b5490945015610f0957600b54601054610efc9083611b50565b610f069190611b67565b92505b8115610e3a57610e378285611b24565b600360075460ff166003811115610f3257610f326119da565b03610fb157335f908152600e6020908152604080832054600d90925290912054610f5c9190611b24565b91505f8211610fa95760405162461bcd60e51b8152602060048201526019602482015278556e696365504d3a206e6f7468696e6720746f20636c61696d60381b6044820152606401610490565b819250610ff2565b60405162461bcd60e51b8152602060048201526016602482015275556e696365504d3a20696e76616c696420737461746560501b6044820152606401610490565b335f818152600f60205260409020805460ff19166001179055600354611025916001600160a01b039190911690856117a2565b801561106b57604080518381526020810183905233917f7472e24de4628e34b41a2aa1688ed4b46a9145b2de1cf93d74902473ccc1740d910160405180910390a26110a1565b60405182815233907fecc88f8ff3d5d68ef9e8a892f48408080ab947617b2256affbba9ae80898a8339060200160405180910390a25b5050506110cd60017f9b779b17422d0df92223018b32b4d1fa46e071723d6817e2486d003becc55f0055565b565b60055442106111205760405162461bcd60e51b815260206004820152601760248201527f556e696365504d3a2062657474696e6720636c6f7365640000000000000000006044820152606401610490565b5f60075460ff166003811115611138576111386119da565b146111855760405162461bcd60e51b815260206004820152601860248201527f556e696365504d3a206d61726b6574207265736f6c76656400000000000000006044820152606401610490565b5f81116111cb5760405162461bcd60e51b8152602060048201526014602482015273155b9a58d954134e881e995c9bc8185b5bdd5b9d60621b6044820152606401610490565b6003546111e3906001600160a01b03163330846117dc565b811561122a57335f908152600d602052604081208054839290611207908490611b24565b9250508190555080600a5f82825461121f9190611b24565b909155506112669050565b335f908152600e602052604081208054839290611248908490611b24565b9250508190555080600b5f8282546112609190611b24565b90915550505b80600c5f8282546112779190611b24565b90915550506040805183151581526020810183905233917fe57fa5a543ebcdebf2a7d7102ac913e14454cec006468e43a6916e95bdfcea9e910160405180910390a25050565b6002546001600160a01b0316331461130c5760405162461bcd60e51b81526020600482015260126024820152712ab734b1b2a8269d103737ba1030b236b4b760711b6044820152606401610490565b600954610100900460ff1661135c5760405162461bcd60e51b8152602060048201526016602482015275155b9a58d954134e881b9bdd08199a5b985b1a5e995960521b6044820152606401610490565b6011548061139e5760405162461bcd60e51b815260206004820152600f60248201526e556e696365504d3a206e6f2066656560881b6044820152606401610490565b5f6011556002546003546113bf916001600160a01b039182169116836117a2565b50565b5f600c545f036113d157505f90565b5f600454426113e09190611b3d565b90505f64496cebb800826101f4600c546113fa9190611b50565b6114049190611b50565b61140e9190611b67565b90505f61271061141f606484611b50565b6114299190611b67565b90506114358183611b3d565b935050505090565b5f805f600960019054906101000a900460ff16158061147357506001600160a01b0384165f908152600f602052604090205460ff165b1561148557505f9150819050806115dd565b600160075460ff16600381111561149e5761149e6119da565b03611518576001600160a01b0384165f908152600d6020908152604080832054600e909252909120546114d18183611b24565b94505f821180156114e357505f600a54115b1561150557600a546010546114f89084611b50565b6115029190611b67565b93505b61150f8486611b24565b925050506115dd565b600260075460ff166003811115611531576115316119da565b0361158b576001600160a01b0384165f908152600d6020908152604080832054600e909252909120546115648183611b24565b94505f8111801561157657505f600b54115b1561150557600b546010546114f89083611b50565b600360075460ff1660038111156115a4576115a46119da565b036115dd576001600160a01b0384165f908152600e6020908152604080832054600d909252909120546115d79190611b24565b92508290505b9193909250565b5f60075460ff1660038111156115fc576115fc6119da565b036116495760405162461bcd60e51b815260206004820152601d60248201527f556e696365504d3a206e6f7468696e6720746f206368616c6c656e67650000006044820152606401610490565b600954610100900460ff16156116715760405162461bcd60e51b815260040161049090611aa1565b60095460ff16156116c45760405162461bcd60e51b815260206004820152601b60248201527f556e696365504d3a20616c7265616479206368616c6c656e67656400000000006044820152606401610490565b6107086008546116d49190611b24565b42106117225760405162461bcd60e51b815260206004820181905260248201527f556e696365504d3a206368616c6c656e67652077696e646f7720636c6f7365646044820152606401610490565b6009805460ff1990811660011790915560078054909116905560405133907f9b9e39a8a790f8ce157ab4671a2c9557b9a3f395e93bc8fe89f89009034f00b3905f90a2565b600180546106d290611ad8565b61177c611818565b60027f9b779b17422d0df92223018b32b4d1fa46e071723d6817e2486d003becc55f0055565b6117af838383600161185a565b6117d757604051635274afe760e01b81526001600160a01b0384166004820152602401610490565b505050565b6117ea8484848460016118bc565b61181257604051635274afe760e01b81526001600160a01b0385166004820152602401610490565b50505050565b7f9b779b17422d0df92223018b32b4d1fa46e071723d6817e2486d003becc55f00546002036110cd57604051633ee5aeb560e01b815260040160405180910390fd5b60405163a9059cbb60e01b5f8181526001600160a01b038616600452602485905291602083604481808b5af1925060015f511483166118b05783831516156118a4573d5f823e3d81fd5b5f873b113d1516831692505b60405250949350505050565b6040516323b872dd60e01b5f8181526001600160a01b038781166004528616602452604485905291602083606481808c5af1925060015f5114831661191857838315161561190c573d5f823e3d81fd5b5f883b113d1516831692505b604052505f60605295945050505050565b5f81518084525f5b8181101561194d57602081850181015186830182015201611931565b505f602082860101526020601f19601f83011685010191505092915050565b5f61014080835261197f8184018e611929565b90508281036020840152611993818d611929565b604084019b909b5250506060810197909752608087019590955260a086019390935260c085019190915260e084015260ff1661010083015215156101209091015292915050565b634e487b7160e01b5f52602160045260245ffd5b6020810160048310611a0e57634e487b7160e01b5f52602160045260245ffd5b91905290565b602081525f611a266020830184611929565b9392505050565b5f60208284031215611a3d575f80fd5b813560ff81168114611a26575f80fd5b5f8060408385031215611a5e575f80fd5b82358015158114611a6d575f80fd5b946020939093013593505050565b5f60208284031215611a8b575f80fd5b81356001600160a01b0381168114611a26575f80fd5b6020808252601a908201527f556e696365504d3a20616c72656164792066696e616c697a6564000000000000604082015260600190565b600181811c90821680611aec57607f821691505b602082108103611b0a57634e487b7160e01b5f52602260045260245ffd5b50919050565b634e487b7160e01b5f52601160045260245ffd5b80820180821115611b3757611b37611b10565b92915050565b81810381811115611b3757611b37611b10565b8082028115828204841417611b3757611b37611b10565b5f82611b8157634e487b7160e01b5f52601260045260245ffd5b50049056fea264697066735822122059df240b88f9078fa44649f51aac89ebf5a1988eb22a1da979af53e0643ecfe864736f6c63430008140033","linkReferences":{}},"methodIdentifiers":{"CHALLENGE_WINDOW()":"d62aad29","MOCK_APY_BPS()":"7a05b4e7","PROTOCOL_FEE_BPS()":"be378228","admin()":"f851a440","bet(bool,uint256)":"5229a6fd","bettingDeadline()":"2468698d","category()":"ef430aa6","challenge()":"d2ef7398","challenged()":"689006a5","claim()":"4e71d92d","claimed(address)":"c884ef83","collateralToken()":"b2016bd4","createdAt()":"cf09e0d0","expireClaim()":"1257d2c8","finalize()":"4bb278f3","finalized()":"b3f05b97","getClaimable(address)":"a583024b","getEstimatedYield()":"8511fc93","getMarketInfo()":"23341a05","getOdds()":"4c5be574","getStatus()":"4e69d560","noShares(address)":"56bc793e","outcome()":"27793f87","protocolFeeAccrued()":"c58a26bd","question()":"3fad9ae0","resolutionDeadline()":"528f734f","submitResult(uint8)":"448807fe","submittedAt()":"1ca10799","totalNoPool()":"6c8d6e5a","totalPool()":"ecfb49a3","totalYesPool()":"35b185b2","withdrawProtocolFee()":"59d8da92","yesShares(address)":"818fa941","yieldGenerated()":"ddd95e64"},"id":34}